{
  "_format": "hh-sol-artifact-1",
  "contractName": "SupplyChain",
  "sourceName": "contracts/SupplyChain.sol",
  "abi": [
    {
      "inputs": [],
      "stateMutability": "nonpayable",
      "type": "constructor"
    },
    {
      "anonymous": false,
      "inputs": [
        {
          "indexed": true,
          "internalType": "uint256",
          "name": "batchId",
          "type": "uint256"
        },
        {
          "indexed": true,
          "internalType": "uint256",
          "name": "productId",
          "type": "uint256"
        },
        {
          "indexed": false,
          "internalType": "string",
          "name": "batchNumber",
          "type": "string"
        },
        {
          "indexed": false,
          "internalType": "string",
          "name": "supplierBatchRef",
          "type": "string"
        },
        {
          "indexed": false,
          "internalType": "uint256",
          "name": "mfgDate",
          "type": "uint256"
        },
        {
          "indexed": false,
          "internalType": "uint256",
          "name": "expiryDate",
          "type": "uint256"
        },
        {
          "indexed": false,
          "internalType": "uint256",
          "name": "createdAt",
          "type": "uint256"
        }
      ],
      "name": "BatchCreated",
      "type": "event"
    },
    {
      "anonymous": false,
      "inputs": [
        {
          "indexed": true,
          "internalType": "uint256",
          "name": "txId",
          "type": "uint256"
        },
        {
          "indexed": true,
          "internalType": "uint256",
          "name": "productId",
          "type": "uint256"
        },
        {
          "indexed": true,
          "internalType": "uint256",
          "name": "batchId",
          "type": "uint256"
        },
        {
          "indexed": false,
          "internalType": "enum SupplyChain.InventoryAction",
          "name": "action",
          "type": "uint8"
        },
        {
          "indexed": false,
          "internalType": "uint256",
          "name": "quantity",
          "type": "uint256"
        },
        {
          "indexed": false,
          "internalType": "int256",
          "name": "signedDelta",
          "type": "int256"
        },
        {
          "indexed": false,
          "internalType": "address",
          "name": "fromAddr",
          "type": "address"
        },
        {
          "indexed": false,
          "internalType": "address",
          "name": "toAddr",
          "type": "address"
        },
        {
          "indexed": false,
          "internalType": "string",
          "name": "refNote",
          "type": "string"
        },
        {
          "indexed": false,
          "internalType": "uint256",
          "name": "timestamp",
          "type": "uint256"
        }
      ],
      "name": "InventoryChanged",
      "type": "event"
    },
    {
      "anonymous": false,
      "inputs": [
        {
          "indexed": true,
          "internalType": "uint256",
          "name": "productId",
          "type": "uint256"
        },
        {
          "indexed": false,
          "internalType": "string",
          "name": "name",
          "type": "string"
        },
        {
          "indexed": false,
          "internalType": "uint256",
          "name": "timestamp",
          "type": "uint256"
        },
        {
          "indexed": true,
          "internalType": "address",
          "name": "actor",
          "type": "address"
        }
      ],
      "name": "ProductOrdered",
      "type": "event"
    },
    {
      "anonymous": false,
      "inputs": [
        {
          "indexed": true,
          "internalType": "uint256",
          "name": "productId",
          "type": "uint256"
        },
        {
          "indexed": false,
          "internalType": "uint8",
          "name": "fromStage",
          "type": "uint8"
        },
        {
          "indexed": false,
          "internalType": "uint8",
          "name": "toStage",
          "type": "uint8"
        },
        {
          "indexed": false,
          "internalType": "uint256",
          "name": "timestamp",
          "type": "uint256"
        },
        {
          "indexed": true,
          "internalType": "address",
          "name": "actor",
          "type": "address"
        }
      ],
      "name": "ProductStageUpdated",
      "type": "event"
    },
    {
      "inputs": [
        {
          "internalType": "uint256",
          "name": "",
          "type": "uint256"
        }
      ],
      "name": "BatchStock",
      "outputs": [
        {
          "internalType": "uint256",
          "name": "id",
          "type": "uint256"
        },
        {
          "internalType": "uint256",
          "name": "productId",
          "type": "uint256"
        },
        {
          "internalType": "string",
          "name": "batchNumber",
          "type": "string"
        },
        {
          "internalType": "string",
          "name": "supplierBatchRef",
          "type": "string"
        },
        {
          "internalType": "uint256",
          "name": "mfgDate",
          "type": "uint256"
        },
        {
          "internalType": "uint256",
          "name": "expiryDate",
          "type": "uint256"
        },
        {
          "internalType": "uint256",
          "name": "totalReceived",
          "type": "uint256"
        },
        {
          "internalType": "uint256",
          "name": "totalIssued",
          "type": "uint256"
        },
        {
          "internalType": "uint256",
          "name": "createdAt",
          "type": "uint256"
        },
        {
          "internalType": "bool",
          "name": "exists",
          "type": "bool"
        }
      ],
      "stateMutability": "view",
      "type": "function"
    },
    {
      "inputs": [
        {
          "internalType": "uint256",
          "name": "",
          "type": "uint256"
        }
      ],
      "name": "DIS",
      "outputs": [
        {
          "internalType": "address",
          "name": "addr",
          "type": "address"
        },
        {
          "internalType": "uint256",
          "name": "id",
          "type": "uint256"
        },
        {
          "internalType": "string",
          "name": "name",
          "type": "string"
        },
        {
          "internalType": "string",
          "name": "place",
          "type": "string"
        }
      ],
      "stateMutability": "view",
      "type": "function"
    },
    {
      "inputs": [
        {
          "internalType": "uint256",
          "name": "_productID",
          "type": "uint256"
        }
      ],
      "name": "Distribute",
      "outputs": [],
      "stateMutability": "nonpayable",
      "type": "function"
    },
    {
      "inputs": [
        {
          "internalType": "uint256",
          "name": "",
          "type": "uint256"
        }
      ],
      "name": "InventoryTx",
      "outputs": [
        {
          "internalType": "uint256",
          "name": "id",
          "type": "uint256"
        },
        {
          "internalType": "uint256",
          "name": "productId",
          "type": "uint256"
        },
        {
          "internalType": "uint256",
          "name": "batchId",
          "type": "uint256"
        },
        {
          "internalType": "enum SupplyChain.InventoryAction",
          "name": "action",
          "type": "uint8"
        },
        {
          "internalType": "uint256",
          "name": "quantity",
          "type": "uint256"
        },
        {
          "internalType": "address",
          "name": "fromAddr",
          "type": "address"
        },
        {
          "internalType": "address",
          "name": "toAddr",
          "type": "address"
        },
        {
          "internalType": "int256",
          "name": "signedDelta",
          "type": "int256"
        },
        {
          "internalType": "string",
          "name": "refNote",
          "type": "string"
        },
        {
          "internalType": "uint256",
          "name": "timestamp",
          "type": "uint256"
        }
      ],
      "stateMutability": "view",
      "type": "function"
    },
    {
      "inputs": [
        {
          "internalType": "uint256",
          "name": "",
          "type": "uint256"
        }
      ],
      "name": "MAN",
      "outputs": [
        {
          "internalType": "address",
          "name": "addr",
          "type": "address"
        },
        {
          "internalType": "uint256",
          "name": "id",
          "type": "uint256"
        },
        {
          "internalType": "string",
          "name": "name",
          "type": "string"
        },
        {
          "internalType": "string",
          "name": "place",
          "type": "string"
        }
      ],
      "stateMutability": "view",
      "type": "function"
    },
    {
      "inputs": [
        {
          "internalType": "uint256",
          "name": "_productID",
          "type": "uint256"
        }
      ],
      "name": "Manufacturing",
      "outputs": [],
      "stateMutability": "nonpayable",
      "type": "function"
    },
    {
      "inputs": [],
      "name": "Owner",
      "outputs": [
        {
          "internalType": "address",
          "name": "",
          "type": "address"
        }
      ],
      "stateMutability": "view",
      "type": "function"
    },
    {
      "inputs": [
        {
          "internalType": "uint256",
          "name": "",
          "type": "uint256"
        }
      ],
      "name": "ProductStock",
      "outputs": [
        {
          "internalType": "uint256",
          "name": "id",
          "type": "uint256"
        },
        {
          "internalType": "string",
          "name": "name",
          "type": "string"
        },
        {
          "internalType": "string",
          "name": "description",
          "type": "string"
        },
        {
          "internalType": "uint256",
          "name": "RMSid",
          "type": "uint256"
        },
        {
          "internalType": "uint256",
          "name": "MANid",
          "type": "uint256"
        },
        {
          "internalType": "uint256",
          "name": "DISid",
          "type": "uint256"
        },
        {
          "internalType": "uint256",
          "name": "RETid",
          "type": "uint256"
        },
        {
          "internalType": "enum SupplyChain.STAGE",
          "name": "stage",
          "type": "uint8"
        }
      ],
      "stateMutability": "view",
      "type": "function"
    },
    {
      "inputs": [
        {
          "internalType": "uint256",
          "name": "",
          "type": "uint256"
        }
      ],
      "name": "RET",
      "outputs": [
        {
          "internalType": "address",
          "name": "addr",
          "type": "address"
        },
        {
          "internalType": "uint256",
          "name": "id",
          "type": "uint256"
        },
        {
          "internalType": "string",
          "name": "name",
          "type": "string"
        },
        {
          "internalType": "string",
          "name": "place",
          "type": "string"
        }
      ],
      "stateMutability": "view",
      "type": "function"
    },
    {
      "inputs": [
        {
          "internalType": "uint256",
          "name": "",
          "type": "uint256"
        }
      ],
      "name": "RMS",
      "outputs": [
        {
          "internalType": "address",
          "name": "addr",
          "type": "address"
        },
        {
          "internalType": "uint256",
          "name": "id",
          "type": "uint256"
        },
        {
          "internalType": "string",
          "name": "name",
          "type": "string"
        },
        {
          "internalType": "string",
          "name": "place",
          "type": "string"
        }
      ],
      "stateMutability": "view",
      "type": "function"
    },
    {
      "inputs": [
        {
          "internalType": "uint256",
          "name": "_productID",
          "type": "uint256"
        }
      ],
      "name": "RMSsupply",
      "outputs": [],
      "stateMutability": "nonpayable",
      "type": "function"
    },
    {
      "inputs": [
        {
          "internalType": "uint256",
          "name": "_productID",
          "type": "uint256"
        }
      ],
      "name": "Retail",
      "outputs": [],
      "stateMutability": "nonpayable",
      "type": "function"
    },
    {
      "inputs": [
        {
          "internalType": "address",
          "name": "_address",
          "type": "address"
        },
        {
          "internalType": "string",
          "name": "_name",
          "type": "string"
        },
        {
          "internalType": "string",
          "name": "_place",
          "type": "string"
        }
      ],
      "name": "addDistributor",
      "outputs": [],
      "stateMutability": "nonpayable",
      "type": "function"
    },
    {
      "inputs": [
        {
          "internalType": "address",
          "name": "_address",
          "type": "address"
        },
        {
          "internalType": "string",
          "name": "_name",
          "type": "string"
        },
        {
          "internalType": "string",
          "name": "_place",
          "type": "string"
        }
      ],
      "name": "addManufacturer",
      "outputs": [],
      "stateMutability": "nonpayable",
      "type": "function"
    },
    {
      "inputs": [
        {
          "internalType": "string",
          "name": "_name",
          "type": "string"
        },
        {
          "internalType": "string",
          "name": "_description",
          "type": "string"
        }
      ],
      "name": "addProduct",
      "outputs": [],
      "stateMutability": "nonpayable",
      "type": "function"
    },
    {
      "inputs": [
        {
          "internalType": "address",
          "name": "_address",
          "type": "address"
        },
        {
          "internalType": "string",
          "name": "_name",
          "type": "string"
        },
        {
          "internalType": "string",
          "name": "_place",
          "type": "string"
        }
      ],
      "name": "addRMS",
      "outputs": [],
      "stateMutability": "nonpayable",
      "type": "function"
    },
    {
      "inputs": [
        {
          "internalType": "address",
          "name": "_address",
          "type": "address"
        },
        {
          "internalType": "string",
          "name": "_name",
          "type": "string"
        },
        {
          "internalType": "string",
          "name": "_place",
          "type": "string"
        }
      ],
      "name": "addRetailer",
      "outputs": [],
      "stateMutability": "nonpayable",
      "type": "function"
    },
    {
      "inputs": [
        {
          "internalType": "uint256",
          "name": "_productID",
          "type": "uint256"
        },
        {
          "internalType": "uint256",
          "name": "_batchID",
          "type": "uint256"
        },
        {
          "internalType": "int256",
          "name": "_quantityDelta",
          "type": "int256"
        },
        {
          "internalType": "address",
          "name": "_holder",
          "type": "address"
        },
        {
          "internalType": "string",
          "name": "_reference",
          "type": "string"
        }
      ],
      "name": "adjustInventory",
      "outputs": [],
      "stateMutability": "nonpayable",
      "type": "function"
    },
    {
      "inputs": [
        {
          "internalType": "uint256",
          "name": "",
          "type": "uint256"
        },
        {
          "internalType": "address",
          "name": "",
          "type": "address"
        }
      ],
      "name": "batchBalanceByHolder",
      "outputs": [
        {
          "internalType": "uint256",
          "name": "",
          "type": "uint256"
        }
      ],
      "stateMutability": "view",
      "type": "function"
    },
    {
      "inputs": [],
      "name": "batchCtr",
      "outputs": [
        {
          "internalType": "uint256",
          "name": "",
          "type": "uint256"
        }
      ],
      "stateMutability": "view",
      "type": "function"
    },
    {
      "inputs": [
        {
          "internalType": "uint256",
          "name": "_productID",
          "type": "uint256"
        },
        {
          "internalType": "string",
          "name": "_batchNumber",
          "type": "string"
        },
        {
          "internalType": "string",
          "name": "_supplierBatchRef",
          "type": "string"
        },
        {
          "internalType": "uint256",
          "name": "_mfgDate",
          "type": "uint256"
        },
        {
          "internalType": "uint256",
          "name": "_expiryDate",
          "type": "uint256"
        }
      ],
      "name": "createBatch",
      "outputs": [
        {
          "internalType": "uint256",
          "name": "",
          "type": "uint256"
        }
      ],
      "stateMutability": "nonpayable",
      "type": "function"
    },
    {
      "inputs": [],
      "name": "disCtr",
      "outputs": [
        {
          "internalType": "uint256",
          "name": "",
          "type": "uint256"
        }
      ],
      "stateMutability": "view",
      "type": "function"
    },
    {
      "inputs": [
        {
          "internalType": "uint256",
          "name": "_batchID",
          "type": "uint256"
        }
      ],
      "name": "getBatchRemainingQty",
      "outputs": [
        {
          "internalType": "uint256",
          "name": "",
          "type": "uint256"
        }
      ],
      "stateMutability": "view",
      "type": "function"
    },
    {
      "inputs": [
        {
          "internalType": "uint256",
          "name": "_productID",
          "type": "uint256"
        }
      ],
      "name": "getProductBatchIds",
      "outputs": [
        {
          "internalType": "uint256[]",
          "name": "",
          "type": "uint256[]"
        }
      ],
      "stateMutability": "view",
      "type": "function"
    },
    {
      "inputs": [
        {
          "internalType": "uint256",
          "name": "_productID",
          "type": "uint256"
        }
      ],
      "name": "getProductTimestamps",
      "outputs": [
        {
          "internalType": "uint256",
          "name": "orderedAt",
          "type": "uint256"
        },
        {
          "internalType": "uint256",
          "name": "rawSupplyAt",
          "type": "uint256"
        },
        {
          "internalType": "uint256",
          "name": "manufactureAt",
          "type": "uint256"
        },
        {
          "internalType": "uint256",
          "name": "distributionAt",
          "type": "uint256"
        },
        {
          "internalType": "uint256",
          "name": "retailAt",
          "type": "uint256"
        },
        {
          "internalType": "uint256",
          "name": "soldAt",
          "type": "uint256"
        },
        {
          "internalType": "uint256",
          "name": "updatedAt",
          "type": "uint256"
        }
      ],
      "stateMutability": "view",
      "type": "function"
    },
    {
      "inputs": [],
      "name": "inventoryTxCtr",
      "outputs": [
        {
          "internalType": "uint256",
          "name": "",
          "type": "uint256"
        }
      ],
      "stateMutability": "view",
      "type": "function"
    },
    {
      "inputs": [
        {
          "internalType": "uint256",
          "name": "_batchID",
          "type": "uint256"
        }
      ],
      "name": "isBatchExpired",
      "outputs": [
        {
          "internalType": "bool",
          "name": "",
          "type": "bool"
        }
      ],
      "stateMutability": "view",
      "type": "function"
    },
    {
      "inputs": [
        {
          "internalType": "uint256",
          "name": "_productID",
          "type": "uint256"
        },
        {
          "internalType": "uint256",
          "name": "_batchID",
          "type": "uint256"
        },
        {
          "internalType": "uint256",
          "name": "_quantity",
          "type": "uint256"
        },
        {
          "internalType": "address",
          "name": "_from",
          "type": "address"
        },
        {
          "internalType": "address",
          "name": "_to",
          "type": "address"
        },
        {
          "internalType": "string",
          "name": "_reference",
          "type": "string"
        }
      ],
      "name": "issueInventory",
      "outputs": [],
      "stateMutability": "nonpayable",
      "type": "function"
    },
    {
      "inputs": [],
      "name": "manCtr",
      "outputs": [
        {
          "internalType": "uint256",
          "name": "",
          "type": "uint256"
        }
      ],
      "stateMutability": "view",
      "type": "function"
    },
    {
      "inputs": [
        {
          "internalType": "uint256",
          "name": "",
          "type": "uint256"
        }
      ],
      "name": "productCreatedAt",
      "outputs": [
        {
          "internalType": "uint256",
          "name": "",
          "type": "uint256"
        }
      ],
      "stateMutability": "view",
      "type": "function"
    },
    {
      "inputs": [],
      "name": "productCtr",
      "outputs": [
        {
          "internalType": "uint256",
          "name": "",
          "type": "uint256"
        }
      ],
      "stateMutability": "view",
      "type": "function"
    },
    {
      "inputs": [
        {
          "internalType": "uint256",
          "name": "",
          "type": "uint256"
        }
      ],
      "name": "productInventory",
      "outputs": [
        {
          "internalType": "uint256",
          "name": "",
          "type": "uint256"
        }
      ],
      "stateMutability": "view",
      "type": "function"
    },
    {
      "inputs": [
        {
          "internalType": "uint256",
          "name": "",
          "type": "uint256"
        }
      ],
      "name": "productLastUpdatedAt",
      "outputs": [
        {
          "internalType": "uint256",
          "name": "",
          "type": "uint256"
        }
      ],
      "stateMutability": "view",
      "type": "function"
    },
    {
      "inputs": [
        {
          "internalType": "uint256",
          "name": "",
          "type": "uint256"
        },
        {
          "internalType": "uint8",
          "name": "",
          "type": "uint8"
        }
      ],
      "name": "productStageAt",
      "outputs": [
        {
          "internalType": "uint256",
          "name": "",
          "type": "uint256"
        }
      ],
      "stateMutability": "view",
      "type": "function"
    },
    {
      "inputs": [
        {
          "internalType": "uint256",
          "name": "_productID",
          "type": "uint256"
        },
        {
          "internalType": "uint256",
          "name": "_batchID",
          "type": "uint256"
        },
        {
          "internalType": "uint256",
          "name": "_quantity",
          "type": "uint256"
        },
        {
          "internalType": "address",
          "name": "_to",
          "type": "address"
        },
        {
          "internalType": "string",
          "name": "_reference",
          "type": "string"
        }
      ],
      "name": "receiveInventory",
      "outputs": [],
      "stateMutability": "nonpayable",
      "type": "function"
    },
    {
      "inputs": [],
      "name": "retCtr",
      "outputs": [
        {
          "internalType": "uint256",
          "name": "",
          "type": "uint256"
        }
      ],
      "stateMutability": "view",
      "type": "function"
    },
    {
      "inputs": [],
      "name": "rmsCtr",
      "outputs": [
        {
          "internalType": "uint256",
          "name": "",
          "type": "uint256"
        }
      ],
      "stateMutability": "view",
      "type": "function"
    },
    {
      "inputs": [
        {
          "internalType": "uint256",
          "name": "_productID",
          "type": "uint256"
        }
      ],
      "name": "showStage",
      "outputs": [
        {
          "internalType": "string",
          "name": "",
          "type": "string"
        }
      ],
      "stateMutability": "view",
      "type": "function"
    },
    {
      "inputs": [
        {
          "internalType": "uint256",
          "name": "_productID",
          "type": "uint256"
        }
      ],
      "name": "sold",
      "outputs": [],
      "stateMutability": "nonpayable",
      "type": "function"
    },
    {
      "inputs": [
        {
          "internalType": "uint256",
          "name": "_productID",
          "type": "uint256"
        },
        {
          "internalType": "uint256",
          "name": "_batchID",
          "type": "uint256"
        },
        {
          "internalType": "uint256",
          "name": "_quantity",
          "type": "uint256"
        },
        {
          "internalType": "address",
          "name": "_from",
          "type": "address"
        },
        {
          "internalType": "address",
          "name": "_to",
          "type": "address"
        },
        {
          "internalType": "string",
          "name": "_reference",
          "type": "string"
        }
      ],
      "name": "transferInventory",
      "outputs": [],
      "stateMutability": "nonpayable",
      "type": "function"
    }
  ],
  "bytecode": "0x6080604052600060015560006002556000600355600060045560006005556000600655600060075534801561003357600080fd5b50600080546001600160a01b0319163317905561371a806100556000396000f3fe608060405234801561001057600080fd5b50600436106102485760003560e01c80637e43d94d1161013b578063aaf175b8116100b8578063e101a2e01161007c578063e101a2e0146105c7578063e3c7036b146105e7578063e92b13ae146105fa578063eef5cb4014610603578063f06fdd4c1461061657600080fd5b8063aaf175b81461055a578063b4a99a4e1461056d578063ca2efb5514610598578063cc403069146105ab578063dd286398146105be57600080fd5b806397b75ad6116100ff57806397b75ad6146104e25780639b740b2f1461050b5780639c03facb1461052b578063a48d335a1461053e578063aaea34aa1461055157600080fd5b80637e43d94d146104805780638217ad6f14610489578063857ddb04146104a957806386c18275146104bc57806394d86714146104cf57600080fd5b8063438a0a48116101c957806359bf286f1161018d57806359bf286f146103ec57806363b82eb7146103ff5780636a42ba921461042a5780636a992c9f1461044d57806379d4e21a1461046057600080fd5b8063438a0a481461036b578063438e9c4d146103965780634def474a1461039f57806353c5feed146103b25780635573d8b2146103c557600080fd5b80632b70b08d116102105780632b70b08d146102e15780632bdb2e6b146102f45780632ef83d0c146102fd5780633a05c8d8146103105780633d753a1c1461035857600080fd5b8063066bd25c1461024d57806323c55dfa1461027f5780632992825f146102965780632a4af440146102a95780632b0187ac146102be575b600080fd5b61026061025b366004612dac565b610636565b6040516102769a99989796959493929190612e0b565b60405180910390f35b61028860065481565b604051908152602001610276565b6102886102a4366004612f1b565b610799565b6102bc6102b7366004612fb6565b610a2d565b005b6102d16102cc366004612dac565b610b4d565b604051610276949392919061302a565b6102bc6102ef366004612fb6565b610c90565b61028860045481565b6102bc61030b36600461306e565b610d8a565b61032361031e366004612dac565b610f72565b604080519788526020880196909652948601939093526060850191909152608084015260a083015260c082015260e001610276565b6102bc610366366004612dac565b611012565b6102886103793660046130d9565b601460209081526000928352604080842090915290825290205481565b61028860035481565b6102bc6103ad366004612dac565b6110b4565b6102bc6103c036600461310f565b611154565b6103d86103d3366004612dac565b61145a565b60405161027698979695949392919061319f565b6102d16103fa366004612dac565b6115af565b61028861040d36600461320b565b601060209081526000928352604080842090915290825290205481565b61043d610438366004612dac565b6115e1565b6040519015158152602001610276565b6102bc61045b366004612fb6565b61165e565b61028861046e366004612dac565b600f6020526000908152604090205481565b61028860055481565b610288610497366004612dac565b60136020526000908152604090205481565b6102bc6104b7366004612fb6565b611761565b6102bc6104ca366004612dac565b611864565b6102bc6104dd36600461310f565b6118fc565b6104f56104f0366004612dac565b611bc6565b6040516102769a9998979695949392919061324b565b61051e610519366004612dac565b611cb2565b60405161027691906132be565b6102bc610539366004612dac565b611d44565b6102bc61054c366004612dac565b611e1e565b61028860015481565b6102bc61056836600461306e565b611ebf565b600054610580906001600160a01b031681565b6040516001600160a01b039091168152602001610276565b6102bc6105a6366004613302565b612237565b6102d16105b9366004612dac565b612456565b61028860025481565b6105da6105d5366004612dac565b612488565b6040516102769190613366565b6102886105f5366004612dac565b612726565b61028860075481565b6102d1610611366004612dac565b61279e565b610288610624366004612dac565b60126020526000908152604090205481565b600d602052600090815260409020805460018201546002830180549293919261065e90613379565b80601f016020809104026020016040519081016040528092919081815260200182805461068a90613379565b80156106d75780601f106106ac576101008083540402835291602001916106d7565b820191906000526020600020905b8154815290600101906020018083116106ba57829003601f168201915b5050505050908060030180546106ec90613379565b80601f016020809104026020016040519081016040528092919081815260200182805461071890613379565b80156107655780601f1061073a57610100808354040283529160200191610765565b820191906000526020600020905b81548152906001019060200180831161074857829003601f168201915b5050506004840154600585015460068601546007870154600888015460099098015496979396929550909350919060ff168a565b600080546001600160a01b03163314806107b757506107b7336127d0565b6107dc5760405162461bcd60e51b81526004016107d3906133ad565b60405180910390fd5b856000811180156107ef57506001548111155b61080b5760405162461bcd60e51b81526004016107d3906133d5565b60008651116108545760405162461bcd60e51b815260206004820152601560248201527410985d18da081b9d5b58995c881c995c5d5a5c9959605a1b60448201526064016107d3565b8215806108615750838310155b6108ad5760405162461bcd60e51b815260206004820152601b60248201527f457870697279206265666f7265206d616e75666163747572696e67000000000060448201526064016107d3565b600680549060006108bd83613417565b91905055506040518061014001604052806006548152602001888152602001878152602001868152602001858152602001848152602001600081526020016000815260200142815260200160011515815250600d600060065481526020019081526020016000206000820151816000015560208201518160010155604082015181600201908161094d9190613476565b50606082015160038201906109629082613476565b506080820151600482015560a0820151600582015560c082015160068083019190915560e083015160078301556101008301516008830155610120909201516009909101805460ff19169115159190911790556000888152601160209081526040808320845481546001810183559185529290932090920155905490518891907f43a717c856186f9851bb44ec695f54cec2498390001f322d23c67eb394f6f2b290610a17908a908a908a908a904290613536565b60405180910390a3505060065495945050505050565b6000546001600160a01b03163314610a575760405162461bcd60e51b81526004016107d390613579565b6001600160a01b038316610aad5760405162461bcd60e51b815260206004820152601b60248201527f496e76616c6964206469737472696275746f722061646472657373000000000060448201526064016107d3565b60048054906000610abd83613417565b9091555050604080516080810182526001600160a01b0385811682526004546020808401828152848601888152606086018890526000938452600b90925294909120835181546001600160a01b03191693169290921782559251600182015591519091906002820190610b309082613476565b5060608201516003820190610b459082613476565b505050505050565b600b602052600090815260409020805460018201546002830180546001600160a01b03909316939192610b7f90613379565b80601f0160208091040260200160405190810160405280929190818152602001828054610bab90613379565b8015610bf85780601f10610bcd57610100808354040283529160200191610bf8565b820191906000526020600020905b815481529060010190602001808311610bdb57829003601f168201915b505050505090806003018054610c0d90613379565b80601f0160208091040260200160405190810160405280929190818152602001828054610c3990613379565b8015610c865780601f10610c5b57610100808354040283529160200191610c86565b820191906000526020600020905b815481529060010190602001808311610c6957829003601f168201915b5050505050905084565b6000546001600160a01b03163314610cba5760405162461bcd60e51b81526004016107d390613579565b6001600160a01b038316610d065760405162461bcd60e51b8152602060048201526013602482015272496e76616c696420524d53206164647265737360681b60448201526064016107d3565b60028054906000610d1683613417565b9091555050604080516080810182526001600160a01b038581168252600280546020808501828152858701898152606087018990526000938452600990925295909120845181546001600160a01b03191694169390931783559351600183015592519192909190820190610b309082613476565b6000546001600160a01b0316331480610da75750610da7336127d0565b610dc35760405162461bcd60e51b81526004016107d3906133ad565b84600081118015610dd657506001548111155b610df25760405162461bcd60e51b81526004016107d3906133d5565b84600081118015610e0557506006548111155b8015610e2257506000818152600d602052604090206009015460ff165b610e3e5760405162461bcd60e51b81526004016107d39061359d565b60008511610e5e5760405162461bcd60e51b81526004016107d3906135c7565b6001600160a01b038416610ea75760405162461bcd60e51b815260206004820152601060248201526f24b73b30b634b2103932b1b2b4bb32b960811b60448201526064016107d3565b6000868152600d60205260409020600101548714610ed75760405162461bcd60e51b81526004016107d3906135f5565b6000868152600d602052604081206006018054879290610ef8908490613625565b90915550506000878152600f602052604081208054879290610f1b908490613625565b909155505060008681526010602090815260408083206001600160a01b038816845290915281208054879290610f52908490613625565b90915550610f69905087876000888189828a61280e565b50505050505050565b600080600080600080600087600081118015610f9057506001548111155b610fac5760405162461bcd60e51b81526004016107d3906133d5565b5050506000868152601460209081526040808320838052825280832054600184528184205460028552828520546003865283862054600487528487205460058852858820549d885260139096529390952054919b909a9499509197509195509193509150565b8060008111801561102557506001548111155b6110415760405162461bcd60e51b81526004016107d3906133d5565b600061104c336129b4565b90506000811161108e5760405162461bcd60e51b815260206004820152600d60248201526c27b7363c903932ba30b4b632b960991b60448201526064016107d3565b60008381526008602052604090206006018190556110af8360036004612a16565b505050565b806000811180156110c757506001548111155b6110e35760405162461bcd60e51b81526004016107d3906133d5565b60006110ee33612b79565b9050600081116111335760405162461bcd60e51b815260206004820152601060248201526f27b7363c903234b9ba3934b13aba37b960811b60448201526064016107d3565b60008381526008602052604090206005018190556110af8360026003612a16565b6000546001600160a01b03163314806111715750611171336127d0565b61118d5760405162461bcd60e51b81526004016107d3906133ad565b856000811180156111a057506001548111155b6111bc5760405162461bcd60e51b81526004016107d3906133d5565b856000811180156111cf57506006548111155b80156111ec57506000818152600d602052604090206009015460ff165b6112085760405162461bcd60e51b81526004016107d39061359d565b600086116112285760405162461bcd60e51b81526004016107d3906135c7565b6001600160a01b03851661126f5760405162461bcd60e51b815260206004820152600e60248201526d496e76616c696420736f7572636560901b60448201526064016107d3565b6001600160a01b0384166112bb5760405162461bcd60e51b815260206004820152601360248201527224b73b30b634b2103232b9ba34b730ba34b7b760691b60448201526064016107d3565b6000878152600d602052604090206001015488146112eb5760405162461bcd60e51b81526004016107d3906135f5565b60008781526010602090815260408083206001600160a01b03891684529091529020548611156113585760405162461bcd60e51b8152602060048201526018602482015277496e73756666696369656e742062617463682073746f636b60401b60448201526064016107d3565b6000888152600f60205260409020548611156113b65760405162461bcd60e51b815260206004820152601a60248201527f496e73756666696369656e742070726f647563742073746f636b00000000000060448201526064016107d3565b60008781526010602090815260408083206001600160a01b0389168452909152812080548892906113e8908490613638565b90915550506000878152600d60205260408120600701805488929061140e908490613625565b90915550506000888152600f602052604081208054889290611431908490613638565b9091555061145090508888600189898961144a8361364b565b8a61280e565b5050505050505050565b6008602052600090815260409020805460018201805491929161147c90613379565b80601f01602080910402602001604051908101604052809291908181526020018280546114a890613379565b80156114f55780601f106114ca576101008083540402835291602001916114f5565b820191906000526020600020905b8154815290600101906020018083116114d857829003601f168201915b50505050509080600201805461150a90613379565b80601f016020809104026020016040519081016040528092919081815260200182805461153690613379565b80156115835780601f1061155857610100808354040283529160200191611583565b820191906000526020600020905b81548152906001019060200180831161156657829003601f168201915b505050600384015460048501546005860154600687015460079097015495969295919450925060ff1688565b600c602052600090815260409020805460018201546002830180546001600160a01b03909316939192610b7f90613379565b6000816000811180156115f657506006548111155b801561161357506000818152600d602052604090206009015460ff165b61162f5760405162461bcd60e51b81526004016107d39061359d565b6000838152600d602052604081206005015490819003611653576000925050611658565b421191505b50919050565b6000546001600160a01b031633146116885760405162461bcd60e51b81526004016107d390613579565b6001600160a01b0383166116de5760405162461bcd60e51b815260206004820152601c60248201527f496e76616c6964206d616e75666163747572657220616464726573730000000060448201526064016107d3565b600380549060006116ee83613417565b9091555050604080516080810182526001600160a01b0385811682526003546020808401828152848601888152606086018890526000938452600a90925294909120835181546001600160a01b03191693169290921782559251600182015591519091906002820190610b309082613476565b6000546001600160a01b0316331461178b5760405162461bcd60e51b81526004016107d390613579565b6001600160a01b0383166117e15760405162461bcd60e51b815260206004820152601860248201527f496e76616c69642072657461696c65722061646472657373000000000000000060448201526064016107d3565b600580549060006117f183613417565b9091555050604080516080810182526001600160a01b0385811682526005546020808401828152848601888152606086018890526000938452600c90925294909120835181546001600160a01b03191693169290921782559251600182015591519091906002820190610b309082613476565b8060008111801561187757506001548111155b6118935760405162461bcd60e51b81526004016107d3906133d5565b600061189e33612bd2565b9050600081116118db5760405162461bcd60e51b81526020600482015260086024820152674f6e6c7920524d5360c01b60448201526064016107d3565b60008381526008602052604081206003018290556110af9084906001612a16565b6000546001600160a01b03163314806119195750611919336127d0565b6119355760405162461bcd60e51b81526004016107d3906133ad565b8560008111801561194857506001548111155b6119645760405162461bcd60e51b81526004016107d3906133d5565b8560008111801561197757506006548111155b801561199457506000818152600d602052604090206009015460ff165b6119b05760405162461bcd60e51b81526004016107d39061359d565b600086116119d05760405162461bcd60e51b81526004016107d3906135c7565b6001600160a01b038516158015906119f057506001600160a01b03841615155b611a3c5760405162461bcd60e51b815260206004820152601860248201527f496e76616c6964207472616e736665722061646472657373000000000000000060448201526064016107d3565b836001600160a01b0316856001600160a01b031603611aa85760405162461bcd60e51b815260206004820152602260248201527f536f7572636520616e642064657374696e6174696f6e206d757374206469666660448201526132b960f11b60648201526084016107d3565b6000878152600d60205260409020600101548814611ad85760405162461bcd60e51b81526004016107d3906135f5565b60008781526010602090815260408083206001600160a01b0389168452909152902054861115611b455760405162461bcd60e51b8152602060048201526018602482015277496e73756666696369656e742062617463682073746f636b60401b60448201526064016107d3565b60008781526010602090815260408083206001600160a01b038916845290915281208054889290611b77908490613638565b909155505060008781526010602090815260408083206001600160a01b038816845290915281208054889290611bae908490613625565b9091555061145090508888600289898960008a61280e565b600e6020526000908152604090208054600182015460028301546003840154600485015460058601546006870154600788015460088901805498999798969760ff9096169694956001600160a01b039485169593909416939192611c2990613379565b80601f0160208091040260200160405190810160405280929190818152602001828054611c5590613379565b8015611ca25780601f10611c7757610100808354040283529160200191611ca2565b820191906000526020600020905b815481529060010190602001808311611c8557829003601f168201915b505050505090806009015490508a565b606081600081118015611cc757506001548111155b611ce35760405162461bcd60e51b81526004016107d3906133d5565b60008381526011602090815260409182902080548351818402810184019094528084529091830182828015611d3757602002820191906000526020600020905b815481526020019060010190808311611d23575b5050505050915050919050565b80600081118015611d5757506001548111155b611d735760405162461bcd60e51b81526004016107d3906133d5565b6000611d7e336129b4565b905060008111611dc05760405162461bcd60e51b815260206004820152600d60248201526c27b7363c903932ba30b4b632b960991b60448201526064016107d3565b6000838152600860205260409020600601548114611e115760405162461bcd60e51b815260206004820152600e60248201526d2bb937b733903932ba30b4b632b960911b60448201526064016107d3565b6110af8360046005612a16565b80600081118015611e3157506001548111155b611e4d5760405162461bcd60e51b81526004016107d3906133d5565b6000611e5833612c2b565b905060008111611e9e5760405162461bcd60e51b815260206004820152601160248201527027b7363c9036b0b73ab330b1ba3ab932b960791b60448201526064016107d3565b60008381526008602052604090206004018190556110af8360016002612a16565b6000546001600160a01b03163314611ee95760405162461bcd60e51b81526004016107d390613579565b84600081118015611efc57506001548111155b611f185760405162461bcd60e51b81526004016107d3906133d5565b84600081118015611f2b57506006548111155b8015611f4857506000818152600d602052604090206009015460ff165b611f645760405162461bcd60e51b81526004016107d39061359d565b84600003611fab5760405162461bcd60e51b815260206004820152601460248201527344656c74612063616e6e6f74206265207a65726f60601b60448201526064016107d3565b6001600160a01b038416611ff25760405162461bcd60e51b815260206004820152600e60248201526d24b73b30b634b2103437b63232b960911b60448201526064016107d3565b6000868152600d602052604090206001015487146120225760405162461bcd60e51b81526004016107d3906135f5565b60008513156120c65760008681526010602090815260408083206001600160a01b038816845290915281208054879283929161205f908490613625565b90915550506000878152600d602052604081206006018054839290612085908490613625565b90915550506000888152600f6020526040812080548392906120a8908490613625565b909155506120c09050888860038460008a8c8b61280e565b50610f69565b60006120d18661364b565b60008881526010602090815260408083206001600160a01b038a1684529091529020549091508111156121465760405162461bcd60e51b815260206004820152601960248201527f496e73756666696369656e7420686f6c6465722073746f636b0000000000000060448201526064016107d3565b6000888152600f60205260409020548111156121a45760405162461bcd60e51b815260206004820152601a60248201527f496e73756666696369656e742070726f647563742073746f636b00000000000060448201526064016107d3565b60008781526010602090815260408083206001600160a01b0389168452909152812080548392906121d6908490613638565b90915550506000878152600d6020526040812060070180548392906121fc908490613625565b90915550506000888152600f60205260408120805483929061221f908490613638565b90915550611450905088886003848960008c8b61280e565b6000546001600160a01b031633146122615760405162461bcd60e51b81526004016107d390613579565b600060025411801561227557506000600354115b801561228357506000600454115b801561229157506000600554115b6122d45760405162461bcd60e51b8152602060048201526014602482015273149959da5cdd195c881c9bdb195cc8199a5c9cdd60621b60448201526064016107d3565b600180549060006122e483613417565b91905055506040518061010001604052806001548152602001838152602001828152602001600081526020016000815260200160008152602001600081526020016000600581111561233857612338613189565b9052600180546000908152600860209081526040909120835181559083015190918201906123669082613476565b506040820151600282019061237b9082613476565b50606082015181600301556080820151816004015560a0820151816005015560c0820151816006015560e08201518160070160006101000a81548160ff021916908360058111156123ce576123ce613189565b021790555050600180546000908152601260209081526040808320429081905584548452601383528184208190558454845260148352818420848052909252918290208190559154905133935090917f5c4015d4cf0eeafe6a2291d37bb0278535dee12be24318d5a5cfb3510deabf2c9161244a918791613667565b60405180910390a35050565b600a602052600090815260409020805460018201546002830180546001600160a01b03909316939192610b7f90613379565b60608160008111801561249d57506001548111155b6124b95760405162461bcd60e51b81526004016107d3906133d5565b60008381526008602052604081206007015460ff1660058111156124df576124df613189565b03612513576040518060400160405280600f81526020016e141c9bd91d58dd0813dc99195c9959608a1b8152509150611658565b600160008481526008602052604090206007015460ff16600581111561253b5761253b613189565b0361257d576040518060400160405280601981526020017f526177204d6174657269616c20537570706c79205374616765000000000000008152509150611658565b600260008481526008602052604090206007015460ff1660058111156125a5576125a5613189565b036125dd57604051806040016040528060138152602001724d616e75666163747572696e6720537461676560681b8152509150611658565b600360008481526008602052604090206007015460ff16600581111561260557612605613189565b0361263c5760405180604001604052806012815260200171446973747269627574696f6e20537461676560701b8152509150611658565b600460008481526008602052604090206007015460ff16600581111561266457612664613189565b03612695576040518060400160405280600c81526020016b52657461696c20537461676560a01b8152509150611658565b600560008481526008602052604090206007015460ff1660058111156126bd576126bd613189565b036126ee576040518060400160405280600c81526020016b141c9bd91d58dd0814dbdb1960a21b8152509150611658565b60405162461bcd60e51b815260206004820152600d60248201526c556e6b6e6f776e20737461676560981b60448201526064016107d3565b60008160008111801561273b57506006548111155b801561275857506000818152600d602052604090206009015460ff165b6127745760405162461bcd60e51b81526004016107d39061359d565b6000838152600d6020526040902060078101546006909101546127979190613638565b9392505050565b6009602052600090815260409020805460018201546002830180546001600160a01b03909316939192610b7f90613379565b60006127db82612c84565b806127ea57506127ea82612cce565b806127f957506127f982612d18565b80612808575061280882612d62565b92915050565b6007805490600061281e83613417565b9190505550604051806101400160405280600754815260200189815260200188815260200187600381111561285557612855613189565b8152602001868152602001856001600160a01b03168152602001846001600160a01b0316815260200183815260200182815260200142815250600e6000600754815260200190815260200160002060008201518160000155602082015181600101556040820151816002015560608201518160030160006101000a81548160ff021916908360038111156128eb576128eb613189565b02179055506080820151600482015560a08201516005820180546001600160a01b039283166001600160a01b03199182161790915560c084015160068401805491909316911617905560e0820151600782015561010082015160088201906129539082613476565b50610120820151816009015590505086886007547f293ac978ebaa45f33b4eeb01496f1a82c43fbf7656f0394287a6e8404e24a5248989878a8a89426040516129a29796959493929190613689565b60405180910390a45050505050505050565b600060015b6005548111612a0d576000818152600c60205260409020546001600160a01b038085169116036129fb576000908152600c602052604090206001015492915050565b80612a0581613417565b9150506129b9565b50600092915050565b816005811115612a2857612a28613189565b60008481526008602052604090206007015460ff166005811115612a4e57612a4e613189565b14612a8b5760405162461bcd60e51b815260206004820152600d60248201526c496e76616c696420737461676560981b60448201526064016107d3565b6000838152600860205260409020600701805482919060ff19166001836005811115612ab957612ab9613189565b021790555060008381526014602052604081204291836005811115612ae057612ae0613189565b60ff16815260208082019290925260409081016000908120939093558583526013909152902042905533837f09f680f22c87182ee82fae3c5a59e9549060431a5ebc19eafa319930b085c6ee846005811115612b3e57612b3e613189565b846005811115612b5057612b50613189565b6040805160ff9384168152929091166020830152429082015260600160405180910390a3505050565b600060015b6004548111612a0d576000818152600b60205260409020546001600160a01b03808516911603612bc0576000908152600b602052604090206001015492915050565b80612bca81613417565b915050612b7e565b600060015b6002548111612a0d576000818152600960205260409020546001600160a01b03808516911603612c195760009081526009602052604090206001015492915050565b80612c2381613417565b915050612bd7565b600060015b6003548111612a0d576000818152600a60205260409020546001600160a01b03808516911603612c72576000908152600a602052604090206001015492915050565b80612c7c81613417565b915050612c30565b600060015b6002548111612a0d576000818152600960205260409020546001600160a01b03808516911603612cbc5750600192915050565b80612cc681613417565b915050612c89565b600060015b6003548111612a0d576000818152600a60205260409020546001600160a01b03808516911603612d065750600192915050565b80612d1081613417565b915050612cd3565b600060015b6004548111612a0d576000818152600b60205260409020546001600160a01b03808516911603612d505750600192915050565b80612d5a81613417565b915050612d1d565b600060015b6005548111612a0d576000818152600c60205260409020546001600160a01b03808516911603612d9a5750600192915050565b80612da481613417565b915050612d67565b600060208284031215612dbe57600080fd5b5035919050565b6000815180845260005b81811015612deb57602081850181015186830182015201612dcf565b506000602082860101526020601f19601f83011685010191505092915050565b60006101408c83528b6020840152806040840152612e2b8184018c612dc5565b90508281036060840152612e3f818b612dc5565b6080840199909952505060a081019590955260c085019390935260e0840191909152610100830152151561012090910152949350505050565b634e487b7160e01b600052604160045260246000fd5b600082601f830112612e9f57600080fd5b813567ffffffffffffffff80821115612eba57612eba612e78565b604051601f8301601f19908116603f01168101908282118183101715612ee257612ee2612e78565b81604052838152866020858801011115612efb57600080fd5b836020870160208301376000602085830101528094505050505092915050565b600080600080600060a08688031215612f3357600080fd5b85359450602086013567ffffffffffffffff80821115612f5257600080fd5b612f5e89838a01612e8e565b95506040880135915080821115612f7457600080fd5b50612f8188828901612e8e565b9598949750949560608101359550608001359392505050565b80356001600160a01b0381168114612fb157600080fd5b919050565b600080600060608486031215612fcb57600080fd5b612fd484612f9a565b9250602084013567ffffffffffffffff80821115612ff157600080fd5b612ffd87838801612e8e565b9350604086013591508082111561301357600080fd5b5061302086828701612e8e565b9150509250925092565b60018060a01b03851681528360208201526080604082015260006130516080830185612dc5565b82810360608401526130638185612dc5565b979650505050505050565b600080600080600060a0868803121561308657600080fd5b8535945060208601359350604086013592506130a460608701612f9a565b9150608086013567ffffffffffffffff8111156130c057600080fd5b6130cc88828901612e8e565b9150509295509295909350565b600080604083850312156130ec57600080fd5b82359150602083013560ff8116811461310457600080fd5b809150509250929050565b60008060008060008060c0878903121561312857600080fd5b86359550602087013594506040870135935061314660608801612f9a565b925061315460808801612f9a565b915060a087013567ffffffffffffffff81111561317057600080fd5b61317c89828a01612e8e565b9150509295509295509295565b634e487b7160e01b600052602160045260246000fd5b60006101008a83528060208401526131b98184018b612dc5565b905082810360408401526131cd818a612dc5565b9150508660608301528560808301528460a08301528360c0830152600683106131f8576131f8613189565b8260e08301529998505050505050505050565b6000806040838503121561321e57600080fd5b8235915061322e60208401612f9a565b90509250929050565b6004811061324757613247613189565b9052565b60006101408c83528b60208401528a604084015261326c606084018b613237565b608083018990526001600160a01b0388811660a0850152871660c084015260e0830186905261010083018190526132a581840186612dc5565b915050826101208301529b9a5050505050505050505050565b6020808252825182820181905260009190848201906040850190845b818110156132f6578351835292840192918401916001016132da565b50909695505050505050565b6000806040838503121561331557600080fd5b823567ffffffffffffffff8082111561332d57600080fd5b61333986838701612e8e565b9350602085013591508082111561334f57600080fd5b5061335c85828601612e8e565b9150509250929050565b6020815260006127976020830184612dc5565b600181811c9082168061338d57607f821691505b60208210810361165857634e487b7160e01b600052602260045260246000fd5b6020808252600e908201526d139bdd08185d5d1a1bdc9a5e995960921b604082015260600190565b602080825260129082015271125b9d985b1a59081c1c9bd91d58dd081a5960721b604082015260600190565b634e487b7160e01b600052601160045260246000fd5b60006001820161342957613429613401565b5060010190565b601f8211156110af57600081815260208120601f850160051c810160208610156134575750805b601f850160051c820191505b81811015610b4557828155600101613463565b815167ffffffffffffffff81111561349057613490612e78565b6134a48161349e8454613379565b84613430565b602080601f8311600181146134d957600084156134c15750858301515b600019600386901b1c1916600185901b178555610b45565b600085815260208120601f198616915b82811015613508578886015182559484019460019091019084016134e9565b50858210156135265787850151600019600388901b60f8161c191681555b5050505050600190811b01905550565b60a08152600061354960a0830188612dc5565b828103602084015261355b8188612dc5565b60408401969096525050606081019290925260809091015292915050565b6020808252600a908201526927b7363c9037bbb732b960b11b604082015260600190565b60208082526010908201526f125b9d985b1a590818985d18da081a5960821b604082015260600190565b60208082526014908201527305175616e74697479206d757374206265203e20360641b604082015260600190565b602080825260169082015275084c2e8c6d05ae0e4dec8eac6e840dad2e6dac2e8c6d60531b604082015260600190565b8082018082111561280857612808613401565b8181038181111561280857612808613401565b6000600160ff1b820161366057613660613401565b5060000390565b60408152600061367a6040830185612dc5565b90508260208301529392505050565b6136938189613237565b60208101879052604081018690526001600160a01b0385811660608301528416608082015260e060a082018190526000906136d090830185612dc5565b90508260c08301529897505050505050505056fea2646970667358221220a107427acb3916cbf21c0838403704e4fffda607ebc45ad1d1d0383be2ee9cb264736f6c63430008130033",
  "linkReferences": {},
  "deployedLinkReferences": {}
}